{
  "contractName": "DocumentVerifier",
  "abi": [
    {
      "inputs": [
        {
          "internalType": "bytes32",
          "name": "",
          "type": "bytes32"
        }
      ],
      "name": "documents",
      "outputs": [
        {
          "internalType": "bytes32",
          "name": "fileHash",
          "type": "bytes32"
        },
        {
          "internalType": "bool",
          "name": "isValid",
          "type": "bool"
        },
        {
          "internalType": "address",
          "name": "owner",
          "type": "address"
        }
      ],
      "stateMutability": "view",
      "type": "function",
      "constant": true
    },
    {
      "inputs": [
        {
          "internalType": "bytes32",
          "name": "hash",
          "type": "bytes32"
        },
        {
          "internalType": "bool",
          "name": "validity",
          "type": "bool"
        }
      ],
      "name": "verifyDocument",
      "outputs": [],
      "stateMutability": "nonpayable",
      "type": "function"
    },
    {
      "inputs": [
        {
          "internalType": "bytes32",
          "name": "hash",
          "type": "bytes32"
        }
      ],
      "name": "getDocument",
      "outputs": [
        {
          "internalType": "bytes32",
          "name": "",
          "type": "bytes32"
        },
        {
          "internalType": "bool",
          "name": "",
          "type": "bool"
        },
        {
          "internalType": "address",
          "name": "",
          "type": "address"
        }
      ],
      "stateMutability": "view",
      "type": "function",
      "constant": true
    }
  ],
  "bytecode": "0x608060405234801561000f575f80fd5b5061041f8061001d5f395ff3fe608060405234801561000f575f80fd5b506004361061003f575f3560e01c80632b2805db146100435780639268cbd614610075578063b10d6b4114610091575b5f80fd5b61005d600480360381019061005891906102b9565b6100c3565b60405161006c9392919061034c565b60405180910390f35b61008f600480360381019061008a91906103ab565b610114565b005b6100ab60048036038101906100a691906102b9565b6101cc565b6040516100ba9392919061034c565b60405180910390f35b5f602052805f5260405f205f91509050805f015490806001015f9054906101000a900460ff16908060010160019054906101000a900473ffffffffffffffffffffffffffffffffffffffff16905083565b604051806060016040528083815260200182151581526020013373ffffffffffffffffffffffffffffffffffffffff168152505f808481526020019081526020015f205f820151815f01556020820151816001015f6101000a81548160ff02191690831515021790555060408201518160010160016101000a81548173ffffffffffffffffffffffffffffffffffffffff021916908373ffffffffffffffffffffffffffffffffffffffff1602179055509050505050565b5f805f805f808681526020019081526020015f206040518060600160405290815f8201548152602001600182015f9054906101000a900460ff161515151581526020016001820160019054906101000a900473ffffffffffffffffffffffffffffffffffffffff1673ffffffffffffffffffffffffffffffffffffffff1673ffffffffffffffffffffffffffffffffffffffff16815250509050805f015181602001518260400151935093509350509193909250565b5f80fd5b5f819050919050565b61029881610286565b81146102a2575f80fd5b50565b5f813590506102b38161028f565b92915050565b5f602082840312156102ce576102cd610282565b5b5f6102db848285016102a5565b91505092915050565b6102ed81610286565b82525050565b5f8115159050919050565b610307816102f3565b82525050565b5f73ffffffffffffffffffffffffffffffffffffffff82169050919050565b5f6103368261030d565b9050919050565b6103468161032c565b82525050565b5f60608201905061035f5f8301866102e4565b61036c60208301856102fe565b610379604083018461033d565b949350505050565b61038a816102f3565b8114610394575f80fd5b50565b5f813590506103a581610381565b92915050565b5f80604083850312156103c1576103c0610282565b5b5f6103ce858286016102a5565b92505060206103df85828601610397565b915050925092905056fea264697066735822122052acb5bb9d0838040462162861f5c89133d17b19873a662dbdfef4bad16f878f64736f6c63430008140033",
  "immutableReferences": {},
  "source": "// SPDX-License-Identifier: MIT\r\npragma solidity ^0.8.0;\r\n\r\ncontract DocumentVerifier {\r\n    struct Document {\r\n        bytes32 fileHash;\r\n        bool isValid;\r\n        address owner;\r\n    }\r\n\r\n    mapping(bytes32 => Document) public documents;\r\n\r\n    function verifyDocument(bytes32 hash, bool validity) public {\r\n        documents[hash] = Document(hash, validity, msg.sender);\r\n    }\r\n\r\n    function getDocument(bytes32 hash) public view returns (bytes32, bool, address) {\r\n        Document memory doc = documents[hash];\r\n        return (doc.fileHash, doc.isValid, doc.owner);\r\n    }\r\n}\r\n",
  "sourcePath": "C:\\Users\\CODECLOUDS-TAPABRAT\\Desktop\\Document-Verification-New-Setu\\contracts\\DocumentVerifier.sol",
  "compiler": {
    "name": "solc",
    "version": "0.8.20+commit.a1b79de6.Emscripten.clang"
  },
  "schemaVersion": "3.4.16",
  "updatedAt": "2025-06-12T16:07:24.249Z",
  "networkType": "ethereum",
  "devdoc": {
    "kind": "dev",
    "methods": {},
    "version": 1
  },
  "userdoc": {
    "kind": "user",
    "methods": {},
    "version": 1
  }
}